:020000040000FA
:100000000C9497000C94A2060C947B060C94BF00F1
:100010000C94BF000C94BF000C94BF000C94BF0064
:100020000C94BF000C94BF000C94BF000C94BF0054
:100030000C94BF000C94BF000C94BF000C94BF0044
:100040000C9431060C94BF000C94FF050C94D90558
:100050000C94BF000C94BF000C94BF000C94BF0024
:100060000C94BF000C94BF00000000002300260089
:10007000290000000000240027002A0000000000E2
:10008000250028002B0004040404040404040202D4
:100090000202020203030303030301020408102007
:1000A0004080010204081020010204081020000012
:1000B0000008000201000003040700000000000027
:1000C0000000636C6F73653D006F70656E3D00707E
:1000D0006F736974696F6E3D002A2A2A00656D6529
:1000E0007267656E63792073746F70002A2A2A0024
:1000F0006572726F7220636F6D6D616E6420007245
:100100006573657400646562756700776174657214
:100110002000706F736974696F6E200073746F7064
:1001200000636C6F7365006F70656E00C906112403
:100130001FBECFEFD8E0DEBFCDBF11E0A0E0B1E041
:10014000EAE9FDE102C005900D92AA35B107D9F7A1
:1001500023E0AAE5B1E001C01D92A530B207E1F7A6
:1001600010E0C7E9D0E004C02197FE010E94880D8D
:10017000C639D107C9F70E944D080C94CB0E0C94D8
:100180000000AF92BF92CF92DF92EF92FF920F9357
:100190001F93CF93DF936C017B018B01040F151F1D
:1001A000EB015E01AE18BF08C017D10759F0699185
:1001B000D601ED91FC910190F081E02DC6010995E9
:1001C000892B79F7C501DF91CF911F910F91FF9096
:1001D000EF90DF90CF90BF90AF900895FC01538DCA
:1001E000448D252F30E0842F90E0821B930B541711
:1001F00010F0CF96089501970895FC01918D828D9E
:10020000981761F0A28DAE0FBF2FB11D5D968C9136
:10021000928D9F5F9F73928F90E008958FEF9FEF75
:100220000895FC01918D828D981731F0828DE80F31
:10023000F11D858D90E008958FEF9FEF0895FC01EB
:10024000918D228D892F90E0805C9F4F821B9109B8
:100250008F739927089585E991E00E941F0121E09D
:10026000892B09F420E0822F089580E090E0892B0B
:1002700029F00E942B0181110C9400000895FC01CB
:10028000A48DA80FB92FB11DA35ABF4F2C91848DF7
:1002900090E001968F739927848FA689B7892C9354
:1002A000A089B1898C91837080648C93938D848DA7
:1002B000981306C00288F389E02D80818F7D8083AA
:1002C0000895EF92FF920F931F93CF93DF93EC016A
:1002D00081E0888F9B8D8C8D98131AC0E889F989ED
:1002E000808185FF15C09FB7F894EE89FF896083F0
:1002F000E889F98980818370806480839FBF81E071
:1003000090E0DF91CF911F910F91FF90EF900895B2
:10031000F62E0B8D10E00F5F1F4F0F731127E02E8D
:100320008C8D8E110CC00FB607FCFACFE889F989C5
:10033000808185FFF5CFCE010E943F01F1CFEB8D8B
:10034000EC0FFD2FF11DE35AFF4FF0829FB7F89499
:100350000B8FEA89FB8980818062CFCF0F931F9337
:10036000CF93DF938C01D0E0C0E0F801EC0FFD1FCC
:100370006491662341F085E991E00E946101892B37
:1003800011F02196F2CFCE01DF91CF911F910F9105
:100390000895CF93DF93EC01888D8823B9F0AA8963
:1003A000BB89E889F9898C9185FD03C0808186FD30
:1003B0000DC00FB607FCF7CF8C9185FFF2CF80817F
:1003C00085FFEDCFCE010E943F01E9CFDF91CF91B4
:1003D0000895833081F028F4813099F08230A9F0BB
:1003E00008958730A9F08830C9F08430B1F4809145
:1003F00080008F7D03C0809180008F778093800084
:10040000089584B58F7784BD089584B58F7DFBCF23
:100410008091B0008F778093B00008958091B000F4
:100420008F7DF9CF1F93CF93DF93282F30E0F90111
:10043000E255FF4F8491F901E656FF4FD491F9013F
:10044000EA57FF4FC491CC23A9F0162F81110E94C7
:10045000E901EC2FF0E0EE0FFF1FE458FF4FA591EC
:10046000B4918FB7F894EC91111108C0D095DE23A8
:10047000DC938FBFDF91CF911F910895DE2BF8CFD2
:10048000CF93DF9390E0FC01E656FF4F24918A570B
:100490009F4FFC0184918823C9F090E0880F991F39
:1004A000FC01EE58FF4FA591B491FC01E458FF4FB9
:1004B000C591D49161110DC09FB7F8948C9120958E
:1004C00082238C938881282328839FBFDF91CF913B
:1004D0000895623051F49FB7F8943C91822F809533
:1004E00083238C93E8812E2BEFCF8FB7F894EC9178
:1004F0002E2B2C938FBFEACF3FB7F89480916301E6
:1005000090916401A0916501B091660126B5A89B08
:1005100005C02F3F19F00196A11DB11D3FBFBA2F95
:10052000A92F982F8827BC01CD01620F711D811D55
:10053000911D42E0660F771F881F991F4A95D1F7DA
:1005400008958F929F92AF92BF92CF92DF92EF92D7
:10055000FF920E947C024B015C0184E6C82ED12CE4
:10056000E12CF12C0E947C02681979098A099B0907
:10057000683E734081059105A8F321E0C21AD108B5
:10058000E108F10888EE880E83E0981EA11CB11CDA
:10059000C114D104E104F10429F7FF90EF90DF903A
:1005A000CF90BF90AF909F908F9008950895DC01F9
:1005B0009896ED91FC919997309719F012968C913D
:1005C00009940895DC019696ED91FC9197973097E8
:1005D00019F012968C9109940895DC019496ED918E
:1005E000FC919597309719F012968C910994089583
:1005F000DC019296ED91FC919397309719F0129649
:100600008C9109940895CF92DF92EF92FF920F930D
:100610001F93CF93DF93FC01278521110EC0C12CBE
:10062000D12C7601C701B601DF91CF911F910F91B7
:10063000FF90EF90DF90CF9008956A017B01EC016D
:10064000228130E0F901E255FF4F8491F901E6562D
:10065000FF4F1491F901EA57FF4F0491002351F124
:1006600081110E94E901E02FF0E0EE0FFF1FE85931
:10067000FF4FA591B491EC911E2331E020E009F4E5
:1006800030E0832F922F2F813885232B11F0F1E05A
:100690008F2781702D853E852130310511F491E041
:1006A00089279889981749F0888BCA8ADB8AEC8A4F
:1006B000FD8AB5CF90E080E0E6CF4A895B896C89FE
:1006C0007D8997018601041B150B260B370B4B8187
:1006D0005C816D817E81401751076207730708F0C6
:1006E0009ECF99898917A9F0898BE881F9818823A0
:1006F000A1F18E899F89A88DB98D0196A11DB11D8B
:100700008E8B9F8BA88FB98F0480F581E02DCE0151
:1007100009958989882309F482CF8A899B89AC89C4
:10072000BD89C81AD90AEA0AFB0A09F478CFCE8E25
:10073000DF8EE8A2F9A289859A85AB85BC850097F2
:10074000A105B105D9F4E881F9810084F185E02D96
:10075000B701A601CE01099565CF0680F781E02D8E
:10076000CE0109954E8D5F8D68A179A1E881F9814F
:100770000284F385E02DCE010995CBCFC816D906AA
:10078000EA06FB0608F44ECF8E899F89A88DB98DA5
:100790004A8D5B8D6C8D7D8D481759076A077B07E5
:1007A00009F440CF8A8F9B8FAC8FBD8FCCCF08953B
:1007B0000F931F938FB7F89440916B0150916C0188
:1007C00060916D0170916E018FBF80915E0190917B
:1007D0005F01A0916001B09161018A019B01081B3A
:1007E000190B2A0B3B0BD901C801C397A105B10511
:1007F00098F080916F0190917001A0917101B0917A
:1008000072010196A11DB11D80936F01909370013B
:10081000A0937101B093720140935E0150935F0108
:1008200060936001709361011F910F910895CF92C1
:10083000DF92EF92FF920F931F938FB7F89440913E
:100840006B0150916C0160916D0170916E018FBFD1
:1008500080915A0190915B01A0915C01B0915D0182
:100860008A019B01081B190B2A0B3B0BD901C801FC
:100870000B97A105B10530F08091F202882389F031
:100880008130F1F140935A0150935B0160935C0118
:1008900070935D011F910F91FF90EF90DF90CF90CB
:1008A00008958091E5029091E602A091E702B0914F
:1008B000E8020196A11DB11D8093E5029093E60226
:1008C000A093E702B093E8028091F3028230D1F660
:1008D000C090E502D090E602E090E702F090E802D6
:1008E0000091ED021091EE022091EF023091F002A2
:1008F000C016D106E206F3062CF28093F102C2CFB5
:100900008091E5029091E602A091E702B091E802A1
:100910000197A109B1098093E5029093E602A093A3
:10092000E702B093E8028091F302823009F0AACF87
:10093000C090E502D090E602E090E702F090E80275
:100940000091E9021091EA022091EB023091EC0251
:100950000C151D052E053F0584F694CFE091340259
:10096000F0913502F89480819181A281B3817894CD
:1009700082E084870895E0913402F0913502F89482
:10098000408151816281738178948685823049F4F7
:1009900084819581A681B78184179507A607B7073B
:1009A00014F481E084870895E0913402F0913502D7
:1009B000F894408151816281738178948685823078
:1009C00049F480859185A285B385481759076A0740
:1009D0007B070CF414860895E0913402F0913502FF
:1009E000F89480819181A281B381789481E0868797
:1009F0000895E0913402F0913502F894808191815C
:100A0000A281B381789416860895EF92FF920F9396
:100A10001F93CF93DF937C0110E000E0D0E0C0E0B3
:100A2000CE010E94260DF70161917F01681729F020
:100A3000CE010E942E0D0F5F1F4F2196CC30D105A5
:100A400079F7C801DF91CF911F910F91FF90EF903F
:100A50000895E0913402F0913502F89480819181FB
:100A6000A281B38178942685222351F0213069F048
:100A700082E08687F894CF010E9405057894089556
:100A800080879187A287B387F3CF84839583A683DA
:100A9000B783EECFFC0101900020E9F73197AF0159
:100AA000481B590BBC0185E991E00C94C1008F9261
:100AB0009F92AF92BF920F931F93CF93DF93CDB7C7
:100AC000DEB7A1970FB6F894DEBF0FBECDBF19A257
:100AD000423008F44AE08E010F5D1F4F842E912CA6
:100AE000B12CA12CA50194010E943C0DE62FB90167
:100AF000CA01EA30F4F4E05DD801EE938D01232BB6
:100B0000242B252B79F790E080E0109719F0CD0188
:100B10000E944A05A1960FB6F894DEBF0FBECDBF66
:100B2000DF91CF911F910F91BF90AF909F908F90C9
:100B30000895E95CE1CFCF92DF92EF92FF92CF93DD
:100B4000DF936B017C01F7FE1FC06DE285E991E048
:100B50000E946101EC0166277727CB016C197D09A2
:100B60008E099F094AE00E945705C80FD91F8CE2E1
:100B700091E00E944A058C0F9D1FDF91CF91FF905D
:100B8000EF90DF90CF9008954AE00E945705EC0166
:100B9000EECFCF93DF930E94AE01EC018CE291E0A7
:100BA0000E944A058C0F9D1FDF91CF9108950C94F0
:100BB000390E1F920F920FB60F9211242F933F936D
:100BC0004F935F936F937F938F939F93AF93BF9355
:100BD000EF93FF9385E991E00E943F01FF91EF9130
:100BE000BF91AF919F918F917F916F915F914F9145
:100BF0003F912F910F900FBE0F901F9018951F924D
:100C00000F920FB60F9211242F938F939F93EF9310
:100C1000FF93E091A501F091A6018081E091AB01E5
:100C2000F091AC0182FD1BC090818091AE018F5F7D
:100C30008F732091AF01821741F0E091AE01F0E097
:100C4000EB56FE4F958F8093AE01FF91EF919F91F0
:100C50008F912F910F900FBE0F901F90189580814C
:100C6000F4CF1F920F920FB60F9211242F933F9340
:100C70008F939F93AF93BF9380916B0190916C0181
:100C8000A0916D01B0916E013091620123E0230FBC
:100C90002D3758F50196A11DB11D20936201809357
:100CA0006B0190936C01A0936D01B0936E018091E4
:100CB000630190916401A0916501B0916601019674
:100CC000A11DB11D8093630190936401A093650100
:100CD000B0936601BF91AF919F918F913F912F91FA
:100CE0000F900FBE0F901F90189526E8230F0296C5
:100CF000A11DB11DD2CF1F920F920FB60F921124DA
:100D00002F933F934F935F936F937F938F939F9313
:100D1000AF93BF93EF93FF93E0910201F091030132
:100D20000995FF91EF91BF91AF919F918F917F9125
:100D30006F915F914F913F912F910F900FBE0F9048
:100D40001F9018951F920F920FB60F9211242F9398
:100D50003F934F935F936F937F938F939F93AF9343
:100D6000BF93EF93FF93E0910001F091010109958A
:100D7000FF91EF91BF91AF919F918F917F916F9173
:100D80005F914F913F912F910F900FBE0F901F9049
:100D90001895CF93DF93E5E9F1E01382128288EE94
:100DA00093E0A0E0B0E084839583A683B7838EE0D0
:100DB00091E09183808385EC90E09587848784EC33
:100DC00090E09787868780EC90E0918B808B81EC18
:100DD00090E0938B828B82EC90E0958B848B86ECF9
:100DE00090E0978B868B118E128E138E148E84E674
:100DF00090E09093330280933202C5EED2E01882E5
:100E000019821A821B821C821D821E821F821886F2
:100E100019861A861B8682E08C878D878E871F86AF
:100E2000188A198A1A8A1B8A1C8A1D8A1E8A1F8A96
:100E3000188E198E1A8E8B8F4CE050E070E060E0B7
:100E4000CE010E94160DEDE3F2E020E231E03183A5
:100E500020831282138214821582168282E090E02F
:100E600090878783118612861386148616861586C8
:100E70001786108A118A128A138A148A158A168A8A
:100E8000178A108E118E128E138E148E158E168E5A
:100E9000178E10A211A213A212A215A214A217A2B9
:100EA00016A211A610A633A722A714A615A616A649
:100EB00017A610AA92AB81AB13AA14AA15AA16AA58
:100EC00010AE17AA11AE12AE13AE14AE15AE16AE1A
:100ED00017AE10927D0210927E0210927F02109245
:100EE000800210928102109282021092830210926C
:100EF000840210928502109286021092870210924C
:100F0000880210928A021092890210928C0210922A
:100F10008B0210928E0210928D021092900210920B
:100F20008F023093920220939102109293021092BA
:100F3000940210929502109296021092970290934A
:100F400099028093980210929A0210929B0210923A
:100F50009C0210929D0210929F0210929E0210928B
:100F6000A0021092A1021092A2021092A30210926B
:100F7000A4021092A5021092A6021092A70210924B
:100F8000A8021092A9021092AA021092AB0210922B
:100F9000AC021092AD021092AE021092AF0210920B
:100FA000B0021092B1021092B2021092B4021092EA
:100FB000B3021092B6021092B5021092B8021092CB
:100FC000B7021092BA021092B9023093BC02209379
:100FD000BB021092BD021092BE021092BF0210928C
:100FE000C0021092C1029093C3028093C202109279
:100FF000C4021092C5021092C6021092C70210924B
:10100000C9021092C8021092CA021092CB0210922A
:10101000CC021092CD021092CE021092CF0210920A
:10102000D0021092D1021092D2021092D3021092EA
:10103000D4021092D5021092D6021092D7021092CA
:10104000D8021092D9021092DA021092DB021092AA
:10105000DC021092DE021092DD021092E002109289
:10106000DF021092E2021092E1021092E40210926A
:10107000E302D0933502C0933402E6E3F2E08DE060
:1010800090E09183808388E893E193838283158243
:1010900014821682DF91CF910895789484B582608E
:1010A00084BD84B5816084BD85B5826085BD85B50C
:1010B000816085BD80916E00816080936E0010928A
:1010C0008100809181008260809381008091810005
:1010D0008160809381008091800081608093800096
:1010E0008091B10084608093B1008091B0008160F4
:1010F0008093B00080917A00846080937A00809120
:101100007A00826080937A0080917A008160809377
:101110007A0080917A00806880937A001092C100F2
:101120002091690130916A01809167019091680175
:101130002817390721F410926801109267018091F5
:1011400067019091680190936A0180936901E09131
:10115000A501F091A60182E08083E091A101F091C8
:10116000A2011082E091A301F091A4018FEC808391
:101170001092AD01E091A901F091AA01C6E0C083EF
:10118000E091A701F091A801808180618083E091C6
:10119000A701F091A801808188608083E091A70178
:1011A000F091A801808180688083E091A701F0918F
:1011B000A80180818F7D808362E083E00E944002ED
:1011C00088ED93E090930301809302018091690080
:1011D0008C6080936900E99A62E082E00E9440029C
:1011E00061E085E00E94400260E085E00E9412021A
:1011F00061E084E00E94400260E084E00E9412020C
:1012000087E194E09093010180930001809169004F
:10121000836080936900E89A84ED94E09093600283
:1012200080935F028EEAA82E84E0B82EB09262020C
:10123000A092610210926402109263021092660200
:1012400010926502C0933F0292E3C92ED12CE12C8B
:10125000F12CC0924002D0924102E0924202F09200
:10126000430202E010E01093450200934402109202
:1012700046021092470210924802109249021092C0
:101280004B0210924A0262E086E00E944002C1E0F6
:10129000C0934C028BEB94E090938A028093890276
:1012A000B0928C02A0928B0210928E0210928D024C
:1012B0001092900210928F0287E080936902C09290
:1012C0006A02D0926B02E0926C02F0926D0210936F
:1012D0006F0200936E0210927002109271021092CF
:1012E000720210927302109275021092740262E000
:1012F0000E944002C09376021092B4021092B30290
:1013000029E2A22E25E0B22EB092B602A092B5023A
:1013100089EF94E09093B8028093B7021092BA02DA
:101320001092B90288E080939302C0929402D09206
:101330009502E0929602F092970210939902009320
:10134000980230ED432E37E0532E612C712C4092E1
:101350009A0250929B0260929C0270929D0210929F
:101360009F0210929E0262E00E944002C093A0027F
:101370001092DE021092DD02B092E002A092DF0233
:101380008CEE94E09093E2028093E1021092E402EA
:101390001092E30289E08093BD02C092BE02D09217
:1013A000BF02E092C002F092C1021093C302009308
:1013B000C2024092C4025092C5026092C60270926C
:1013C000C7021092C9021092C80262E00E94400255
:1013D000C093CA0261E0809136020E94400288E117
:1013E0009EE00FB6F894A895809360000FBE90938E
:1013F0006000D1E040E2942E00E010E08824839465
:10140000C2E050E2A52EB12C80913A0290913B02AD
:10141000019690933B0280933A02209138023091DA
:101420003902281739077CF460913C02809136021A
:101430000E94120280913C028D2780933C02109200
:101440003B0210923A02A89585E991E00E941F01A3
:10145000181619060CF060C085E991E00E94FD00A5
:101460008D3009F459C0E0917301F0917401EF31AE
:10147000F10509F040C0B0927401A092730110927E
:1014800094016FE271E085E791E00E94C20E892B22
:1014900009F03BC187E291E00E94C905F8944091B0
:1014A000E5025091E6026091E7027091E8027894BB
:1014B0008091F302823069F48091ED029091EE0206
:1014C000A091EF02B091F002481759076A077B0715
:1014D00014F41092F1028CEE90E00E94C905E5E749
:1014E000F1E0DF01292D1D922A95E9F71092740190
:1014F0001092730111C0E032F1051CF6AF014F5F8D
:101500005F4FED58FE4F50937401409373018A3042
:1015100011F41282B6CF82838FB7F894C0906B011A
:10152000D0906C01E0906D01F0906E018FBFB7011B
:10153000A6018DE392E00E940303B701A60187E6AE
:1015400092E00E940303B701A60181E992E00E94A4
:101550000303B701A6018BEB92E00E940303909175
:10156000F10280910003981771F08091F1028130AF
:1015700009F440C208F40FC2823009F446C28091D7
:10158000F102809300038091F102823009F48AC055
:101590008091F8029091F902A091FA02B091FB02B9
:1015A000A7019601281B390B4A0B5B0BDA01C90115
:1015B000853F9140A105B105D8F1F8944090E5022E
:1015C0005090E6026090E7027090E8027894809173
:1015D000F4029091F502A091F602B091F702A301F6
:1015E0009201281B390B4A0B5B0BDA01C9010996E2
:1015F000A11DB11D4397A105B10550F4C093F1029F
:101600008DED90E00E94C90589ED90E00E94C9052A
:101610004092F4025092F5026092F6027092F70244
:10162000C092F802D092F902E092FA02F092FB0224
:101630008091F3028230B1F5F8944091E502509127
:10164000E6026091E7027091E80278948091E902E5
:101650009091EA02A091EB02B091EC0286599109B7
:10166000A109B109481759076A077B078CF08091D7
:10167000ED029091EE02A091EF02B091F0028A5635
:101680009F4FAF4FBF4F84179507A607B70754F476
:10169000C093F1028DED90E00E94C90589ED90E0C4
:1016A0000E94C9058091FC029091FD02A091FE026A
:1016B000B091FF020097A105B105D9F0C81AD90A67
:1016C000EA0AFB0A39EBC3163BE0D306E104F10456
:1016D00080F01092FC021092FD021092FE02109215
:1016E000FF02C093F202F89485EE92E00E94050595
:1016F00078940115110509F487CE0E942B018823E7
:1017000009F482CE0E9400007FCE64E371E085E799
:1017100091E00E94C20E892B19F581E291E00E94AE
:10172000C905F8944091E5025091E6026091E70204
:101730007091E80278948091F302823071F4809184
:10174000E9029091EA02A091EB02B091EC028417B9
:101750009507A607B7070CF0BECE8092F102BBCE6C
:101760006AE371E085E791E00E94C20E892B89F45B
:101770008CE191E00E94C905F8948091E502909176
:10178000E602A091E702B091E8027894C093F102DA
:10179000A2CE6FE371E085E791E00E94C20E892B33
:1017A00009F07DC082E191E00E94AE01F894409082
:1017B000E5025090E6026090E7027090E8027894AB
:1017C000C090ED02D090EE02E090EF02F090F002B7
:1017D0008091E9029091EA02A091EB02B091EC02B3
:1017E000C81AD90AEA0AFB0A09F455C08091E9022D
:1017F0009091EA02A091EB02B091EC02A301920158
:10180000281B390B4A0B5B0BA4E6B0E00E947D0D50
:10181000A70196010E945E0D57FD3DC08091E9022F
:101820009091EA02A091EB02B091EC02A301920127
:10183000281B390B4A0B5B0BA4E6B0E00E947D0D20
:10184000A70196010E945E0D25363105410551051F
:1018500024F58091E9029091EA02A091EB02B09107
:10186000EC02A3019201281B390B4A0B5B0BA4E687
:10187000B0E00E947D0DA70196010E945E0D622FCF
:1018800070E090E080E04AE00E9457058CE291E031
:101890000E944A0520CE20E0F2CF24E6F0CF68E493
:1018A00071E085E791E00E94C20E892B79F48BE00C
:1018B00091E00E94AE01F89460916F017091700107
:1018C00080917101909172017894DDCF6EE471E0A6
:1018D00085E791E00E94C20E892B79F585E091E0C1
:1018E0000E94C9058FEC90E00E94AE016091E50274
:1018F0007091E6028091E7029091E8020E949B05B8
:1019000089EC90E00E94AE016091ED027091EE02D0
:101910008091EF029091F0020E949B0582EC90E092
:101920000E94AE016091E9027091EA028091EB029F
:101930009091EC020E949B05CECD64E571E085E7B5
:1019400091E00E94C20E892BE9F48FEF90E00E9493
:10195000C9051092E5021092E6021092E702109279
:10196000E8021092E9021092EA021092EB02109241
:10197000EC021092ED021092EE021092EF02109221
:10198000F002A9CD80EF90E00E94AE0185E791E0E2
:101990000E944A057BCF1092F20261E085E00E942E
:1019A00012020E94A10260E084E00E941202F894F8
:1019B0008091E5029091E602A091E702B091E802E1
:1019C00078948093F4029093F502A093F602B0937A
:1019D000F702C092F802D092F902E092FA02F09275
:1019E000FB021092FC021092FD021092FE02109275
:1019F000FF02C5CD8093F20261E084E00E941202F2
:101A00000E94A10260E085E0D0CF60E085E00E9406
:101A1000120260E084E00E941202C092FC02D092A6
:101A2000FD02E092FE02F092FF02A9CDDC01CB01A3
:101A3000FC01F999FECF06C0F2BDE1BDF89A3196DE
:101A400000B40D9241505040B8F70895F999FECF77
:101A500092BD81BDF89A992780B50895262FF999EE
:101A6000FECF1FBA92BD81BD20BD0FB6F894FA9A81
:101A7000F99A0FBE01960895A1E21A2EAA1BBB1B6C
:101A8000FD010DC0AA1FBB1FEE1FFF1FA217B3074A
:101A9000E407F50720F0A21BB30BE40BF50B661F60
:101AA000771F881F991F1A9469F760957095809524
:101AB00090959B01AC01BD01CF010895052E97FBC8
:101AC0001EF400940E94750D57FD07D00E943C0D36
:101AD00007FC03D04EF40C94750D5095409530954D
:101AE00021953F4F4F4F5F4F08959095809570958A
:101AF00061957F4F8F4F9F4F08950E948E0DA59F38
:101B0000900DB49F900DA49F800D911D11240895F8
:101B1000EE0FFF1F0590F491E02D0994A29FB001F4
:101B2000B39FC001A39F700D811D1124911DB29F11
:101B3000700D811D1124911D08950F931F93CF9354
:101B4000DF938230910510F482E090E0E09103038E
:101B5000F091040330E020E0B0E0A0E0309799F489
:101B60002115310509F44AC0281B390B24303105F1
:101B7000D8F58A819B816115710589F1FB019383F9
:101B80008283FE0111C04081518102811381481777
:101B90005907E0F04817590799F4109761F0129629
:101BA0000C93129713961C933296CF01DF91CF912D
:101BB0001F910F9108950093030310930403F4CF32
:101BC0002115310551F04217530738F0A901DB0107
:101BD0009A01BD01DF01F801C1CFEF01F9CF909368
:101BE000040380930303CDCFFE01E20FF31F819323
:101BF00091932250310939832883D7CF2091010353
:101C000030910203232B41F420910601309107010A
:101C100030930203209301032091040130910501C8
:101C20002115310541F42DB73EB74091080150917F
:101C30000901241B350BE0910103F0910203E21727
:101C4000F307A0F42E1B3F0B2817390778F0AC01DF
:101C50004E5F5F4F2417350748F04E0F5F1F5093BC
:101C6000020340930103819391939FCFF0E0E0E062
:101C70009CCFCF93DF930097E9F0FC01329713825A
:101C80001282A0910303B0910403ED0130E020E043
:101C90001097A1F420813181820F931F20910103BD
:101CA000309102032817390709F061C0F09302034D
:101CB000E0930103DF91CF910895EA01CE17DF078A
:101CC000E8F54A815B819E0141155105B1F7E901B3
:101CD000FB83EA8349915991C40FD51FEC17FD0787
:101CE00061F4808191810296840F951FE9019983A7
:101CF0008883828193819B838A83F0E0E0E012965F
:101D00008D919C9113970097B9F52D913C91119766
:101D1000CD010296820F931F20910103309102039F
:101D20002817390739F6309751F5109204031092AD
:101D30000303B0930203A0930103BCCFD383C283F8
:101D400040815181840F951FC817D90761F44E5FF8
:101D50005F4F88819981480F591F518340838A8141
:101D60009B81938382832115310509F0B0CFF093D5
:101D70000403E09303039ECFFD01DC01C0CF138277
:101D80001282D7CFFB01DC018D91019080190110E7
:101D9000D9F3990B0895F894FFCFD602D60200002C
:101DA00005038000000000006101C100EE00C901D0
:101DB0001F01FD00110100000000D703D705F80244
:101DC000ED02E202D7020D0A006F70656E00636CCF
:101DD0006F73650073746F7000706F736974696FEF
:101DE0006E00776174657200646562756700726584
:041DF00073657400A3
:107E0000112484B714BE81FFF0D085E080938100F7
:107E100082E08093C00088E18093C10086E0809377
:107E2000C20080E18093C4008EE0C9D0259A86E02C
:107E300020E33CEF91E0309385002093840096BBD3
:107E4000B09BFECF1D9AA8958150A9F7CC24DD24C4
:107E500088248394B5E0AB2EA1E19A2EF3E0BF2EE7
:107E6000A2D0813461F49FD0082FAFD0023811F036
:107E7000013811F484E001C083E08DD089C08234E0
:107E800011F484E103C0853419F485E0A6D080C0E4
:107E9000853579F488D0E82EFF2485D0082F10E0AE
:107EA000102F00270E291F29000F111F8ED06801E7
:107EB0006FC0863521F484E090D080E0DECF843638
:107EC00009F040C070D06FD0082F6DD080E0C81688
:107ED00080E7D80618F4F601B7BEE895C0E0D1E017
:107EE00062D089930C17E1F7F0E0CF16F0E7DF06D8
:107EF00018F0F601B7BEE89568D007B600FCFDCFD4
:107F0000A601A0E0B1E02C9130E011968C91119780
:107F100090E0982F8827822B932B1296FA010C0160
:107F200087BEE89511244E5F5F4FF1E0A038BF0790
:107F300051F7F601A7BEE89507B600FCFDCF97BE46
:107F4000E89526C08437B1F42ED02DD0F82E2BD052
:107F50003CD0F601EF2C8F010F5F1F4F84911BD097
:107F6000EA94F801C1F70894C11CD11CFA94CF0C13
:107F7000D11C0EC0853739F428D08EE10CD085E9AC
:107F80000AD08FE07ACF813511F488E018D01DD067
:107F900080E101D065CF982F8091C00085FFFCCF94
:107FA0009093C60008958091C00087FFFCCF809118
:107FB000C00084FD01C0A8958091C6000895E0E648
:107FC000F0E098E1908380830895EDDF803219F02E
:107FD00088E0F5DFFFCF84E1DECF1F93182FE3DFCA
:107FE0001150E9F7F2DF1F91089580E0E8DFEE27F6
:047FF000FF270994CA
:027FFE00040479
:00000001FF
