:100000000C9497000C9447040C9420040C94BF00AB
:100010000C94BF000C94BF000C94BF000C94BF0064
:100020000C94BF000C94BF000C94BF000C94BF0054
:100030000C94BF000C94BF000C94BF000C94BF0044
:100040000C9485060C94BF000C9494040C946E04DC
:100050000C94BF000C94BF000C94BF000C94BF0024
:100060000C94BF000C94BF00000000002300260089
:100070002900636C6F73653D006F70656E3D0070A5
:100080006F736974696F6E3D002A2A2A00656D6579
:100090007267656E63792073746F70002A2A2A0074
:1000A0006572726F7220636F6D6D616E6420007295
:1000B0006573657400646562756700776174657265
:1000C0002000706F736974696F6E200073746F70B5
:1000D00000636C6F7365006F70656E000000000058
:1000E000240027002A0000000000250028002B0023
:1000F00004040404040404040202020202020303CE
:1001000003030303010204081020408001020408D5
:100110001020010204081020000000080002010065
:10012000000304070000000000000000930B1124EE
:100130001FBECFEFD8E0DEBFCDBF11E0A0E0B1E041
:10014000EEE9FDE102C005900D92AA35B107D9F79D
:1001500023E0AAE5B1E001C01D92A530B207E1F7A6
:1001600010E0C7E9D0E004C02197FE010E94890D8C
:10017000C639D107C9F70E94CF060C94CD0E0C9456
:1001800000000895CF92DF92EF92FF920F931F939A
:10019000CF93DF936C017A018B01C0E0D0E0CE15E4
:1001A000DF0581F0D8016D918D01D601ED91FC91B3
:1001B0000190F081E02DC6010995892B11F021965F
:1001C000EECF7E01C701DF91CF911F910F91FF907C
:1001D000EF90DF90CF900895089580E090E008952B
:1001E000FC01538D448D252F30E0842F90E0821B3D
:1001F000930B541710F0CF96089501970895FC01C2
:10020000918D828D981761F0828DDF01A80FB11D4D
:100210005D968C91928D9F5F9F73928F90E0089571
:100220008FEF9FEF0895FC01918D828D981731F02B
:10023000828DE80FF11D858D90E008958FEF9FEF7F
:100240000895FC01918D228D892F90E0805C9F4F55
:10025000821B91098F739927089580E991E00E948C
:10026000210121E0892B09F420E0822F0895FC016F
:10027000848DDF01A80FB11DA35ABF4F2C91848D2F
:1002800090E001968F739927848FA689B7892C9364
:10029000A089B1898C91837080648C93938D848DB7
:1002A000981306C00288F389E02D80818F7D8083BA
:1002B0000895EF92FF920F931F93CF93DF93EC017A
:1002C00081E0888F9B8D8C8D981305C0E889F98912
:1002D000808185FD26C0F62E0B8D10E00F5F1F4F2D
:1002E0000F731127E02E8C8DE8120CC00FB607FC9F
:1002F000FACFE889F989808185FFF5CFCE010E9488
:100300003701F1CF8B8DFE01E80FF11DE35AFF4F4E
:10031000F0829FB7F8940B8FEA89FB898081806215
:100320000AC09FB7F894EE89FF896083E889F9894C
:1003300080818370806480839FBF81E090E0DF9143
:10034000CF911F910F91FF90EF900895CF93DF937E
:10035000EC01888D8823C9F0EA89FB89808185FDBD
:1003600005C0A889B9898C9186FD0FC00FB607FC1E
:10037000F5CF808185FFF2CFA889B9898C9185FF5F
:10038000EDCFCE010E943701E7CFDF91CF910895E5
:1003900080E090E0892B29F00E942D0181110C94BE
:1003A00000000895DC019896ED91FC9199973097A3
:1003B00019F012968C9109940895DC019696ED91AE
:1003C000FC919797309719F012968C9109940895A3
:1003D000DC019496ED91FC919597309719F0129667
:1003E0008C9109940895DC019296ED91FC9193977C
:1003F000309719F012968C91099408950F931F93DA
:100400008FB7F89440918C0150918D0160918E01CD
:1004100070918F018FBF80915E0190915F01A091DB
:100420006001B09161018A019B01081B190B2A0B25
:100430003B0B033311052105310598F080916601CE
:1004400090916701A0916801B09169010196A11D89
:10045000B11D8093660190936701A0936801B093EA
:10046000690140935E0150935F0160936001709356
:1004700061011F910F910895CF92DF92EF92FF9249
:100480000F931F938FB7F89440918C0150918D0179
:1004900060918E0170918F018FBF80915A01909170
:1004A0005B01A0915C01B0915D018A019B01081B79
:1004B000190B2A0B3B0B0B3011052105310508F4F4
:1004C00061C08091ED02882319F0813079F15AC022
:1004D0008091E0029091E102A091E202B091E302EA
:1004E0000196A11DB11D8093E0029093E102A093BB
:1004F000E202B093E3028091EE02823009F042C042
:10050000C090E002D090E102E090E202F090E302BD
:100510000091E8021091E9022091EA023091EB0289
:10052000C016D106E206F306E4F52CC08091E00285
:100530009091E102A091E202B091E3020197A1093A
:10054000B1098093E0029093E102A093E202B0939C
:10055000E3028091EE028230A9F4C090E002D090D4
:10056000E102E090E202F090E3020091E4021091D7
:10057000E5022091E6023091E7020C151D052E05DB
:100580003F057CF440935A0150935B0160935C01FA
:1005900070935D011F910F91FF90EF90DF90CF90CE
:1005A00008958093EC02EECFE0912F02F09130029B
:1005B000F89480819181A281B381789482E08487CC
:1005C0000895E0912F02F0913002F894408151811A
:1005D0006281738178948685823049F48481958123
:1005E000A681B78184179507A607B70714F481E0A1
:1005F00084870895E0912F02F0913002F8944081B1
:1006000051816281738178948685823049F4808536
:100610009185A285B385481759076A077B070CF4B3
:1006200014860895E0912F02F0913002F8948081B1
:100630009181A281B38178942685222339F02130DB
:1006400049F484839583A683B78304C08087918708
:10065000A287B38782E08687F894CF010E94EC04DA
:1006600078940895E0912F02F0913002F8948081FF
:100670009181A281B381789481E086870895E09189
:100680002F02F0913002F89480819181A281B38190
:100690007894168608950E94BF0ECF92DF92EF9253
:1006A000FF920F931F93CF93DF93FC0127852223A3
:1006B00009F43FC06A017B01EC01228130E0F901BD
:1006C000E85EFE4F8491F901EC5FFE4F1491F90151
:1006D000E051FF4F04910023A1F081110E94F10528
:1006E000E02FF0E0EE0FFF1FE859FF4FA591B49106
:1006F000EC911E2331E020E009F430E0832F922FAB
:1007000002C080E090E02F813885232B11F0F1E0CA
:100710008F2781702D853E852130310511F491E0C0
:1007200089279889981751F0888BCA8ADB8AEC8AC6
:10073000FD8A60E070E080E090E077C04A895B89E4
:100740006C897D8997018601041B150B260B370BDD
:100750004B815C816D817E81401751076207730771
:1007600040F79989891731F1898BE881F9818823CC
:1007700089F08E899F89A88DB98D0196A11DB11D23
:100780008E8B9F8BA88FB98F0480F581E02DCE01D1
:10079000099510C00680F781E02DCE0109954E8D98
:1007A0005F8D68A179A1E881F9810284F385E02D4C
:1007B000CE0109958989882309F4BBCF8A899B8951
:1007C000AC89BD89C81AD90AEA0AFB0A09F4B1CF73
:1007D000CE8EDF8EE8A2F9A289859A85AB85BC858D
:1007E0000097A105B105B1F0C816D906EA06FB06C7
:1007F000D0F08E899F89A88DB98D4A8D5B8D6C8DC7
:100800007D8D481759076A077B0769F08A8F9B8F90
:10081000AC8FBD8FE881F9810084F185E02DB701AF
:10082000A601CE010995B601C701DF91CF911F91B5
:100830000F91FF90EF90DF90CF9008950C94360EBB
:100840001F920F920FB60F9211242F933F934F9345
:100850005F936F937F938F939F93AF93BF93EF9328
:10086000FF93E0910201F09103010995FF91EF914F
:10087000BF91AF919F918F917F916F915F914F91B8
:100880003F912F910F900FBE0F901F9018951F92C0
:100890000F920FB60F9211242F933F934F935F93B4
:1008A0006F937F938F939F93AF93BF93EF93FF9338
:1008B000E0910001F09101010995FF91EF91BF9145
:1008C000AF919F918F917F916F915F914F913F91E8
:1008D0002F910F900FBE0F901F9018951F920F929F
:1008E0000FB60F9211242F933F934F935F936F9303
:1008F0007F938F939F93AF93BF93EF93FF9380E981
:1009000091E00E943701FF91EF91BF91AF919F91CC
:100910008F917F916F915F914F913F912F910F90A8
:100920000FBE0F901F9018951F920F920FB60F9247
:1009300011242F938F939F93EF93FF93E091A00146
:10094000F091A1018081E091A601F091A70182FDC3
:1009500012C090818091A9018F5F8F732091AA01AD
:10096000821751F0E091A901F0E0E057FE4F958F1A
:100970008093A90101C08081FF91EF919F918F9198
:100980002F910F900FBE0F901F90189508953FB7AD
:10099000F8948091FD029091FE02A091FF02B09127
:1009A000000326B5A89B05C02F3F19F00196A11D95
:1009B000B11D3FBFBA2FA92F982F8827820F911DF5
:1009C000A11DB11DBC01CD0142E0660F771F881F3C
:1009D000991F4A95D1F70895EF92FF920F931F93B5
:1009E000CF93DF937C0100E010E0C0E0D0E0CE01C7
:1009F0000E94270DF70161917F01681729F0CE0150
:100A00000E942F0D0F5F1F4F2196CC30D10579F733
:100A1000C801DF91CF911F910F91FF90EF90089542
:100A20008F929F92AF92BF92CF92DF92EF92FF92FE
:100A30000E94C7044B015C0184E6C82ED12CE12C36
:100A4000F12C0E94C704DC01CB0188199909AA097D
:100A5000BB09883E9340A105B10598F321E0C21A75
:100A6000D108E108F10888EE880E83E0981EA11CE9
:100A7000B11CC114D104E104F10419F7FF90EF9007
:100A8000DF90CF90BF90AF909F908F900895009788
:100A900069F0FC0101900020E9F73197AF01481B94
:100AA000590BBC0180E991E00C94C20080E090E019
:100AB00008958F929F92AF92BF920F931F93CF93FF
:100AC000DF93CDB7DEB7A1970FB6F894DEBF0FBEA8
:100AD000CDBF19A2423008F44AE08E010F5D1F4FCE
:100AE000842E912CA12CB12CA50194010E943D0DC6
:100AF000E62FB901CA0101501109EA3014F4E05D92
:100B000001C0E95CD801EC93232B242B252B61F742
:100B1000C8010E944705A1960FB6F894DEBF0FBE2C
:100B2000CDBFDF91CF911F910F91BF90AF909F905C
:100B30008F900895CF92DF92EF92FF92CF93DF9341
:100B40006B017C0197FF13C06DE280E991E00E9488
:100B50005901EC0166277727CB016C197D098E09B5
:100B60009F094AE00E945905C80FD91F04C04AE0F6
:100B70000E945905EC0180E491E00E9447058C0F2A
:100B80009D1FDF91CF91FF90EF90DF90CF90089560
:100B90000F931F93CF93DF938C01C0E0D0E0F80157
:100BA000EC0FFD1F6491662341F080E991E00E9403
:100BB0005901892B11F02196F2CFCE01DF91CF910F
:100BC0001F910F910895CF93DF930E94C805EC0108
:100BD00080E491E00E9447058C0F9D1FDF91CF912B
:100BE0000895833081F028F4813099F08230A1F0AB
:100BF00008958730A9F08830B9F08430D1F480911D
:100C000080008F7D03C0809180008F77809380006B
:100C1000089584B58F7702C084B58F7D84BD089513
:100C20008091B0008F7703C08091B0008F7D80935A
:100C3000B00008951F93CF93DF93282F30E0F90180
:100C4000E85EFE4F8491F901EC5FFE4FD491F9010B
:100C5000E051FF4FC491CC23C1F0162F81110E94A7
:100C6000F105EC2FF0E0EE0FFF1FEA51FF4FA591C9
:100C7000B4919FB7F894111104C08C91D095D823EA
:100C800002C0EC91DE2BDC939FBFDF91CF911F91CF
:100C90000895CF93DF9390E0FC01EC5FFE4F249129
:100CA000FC01E051FF4F8491882361F190E0880FAF
:100CB000991FFC01E452FF4FC591D491FC01EA5108
:100CC000FF4FA591B491611109C09FB7F894888135
:100CD000209582238883EC912E230BC0623061F42F
:100CE0009FB7F8948881322F309583238883EC91C5
:100CF0002E2B2C939FBF06C08FB7F894E8812E2B24
:100D000028838FBFDF91CF9108951F920F920FB666
:100D10000F9211242F933F938F939F93AF93BF9381
:100D200080918C0190918D01A0918E01B0918F01E5
:100D30003091FC0223E0230F2D3720F40196A11DF2
:100D4000B11D05C026E8230F0296A11DB11D2093F9
:100D5000FC0280938C0190938D01A0938E01B0933F
:100D60008F018091FD029091FE02A091FF02B0914F
:100D700000030196A11DB11D8093FD029093FE0218
:100D8000A093FF02B0930003BF91AF919F918F9109
:100D90003F912F910F900FBE0F901F901895789450
:100DA00084B5826084BD84B5816084BD85B5826070
:100DB00085BD85B5816085BD80916E008160809321
:100DC0006E0010928100809181008260809381008A
:100DD000809181008160809381008091800081609A
:100DE000809380008091B10084608093B1008091F5
:100DF000B00081608093B00080917A00846080931D
:100E00007A0080917A00826080937A0080917A00E3
:100E1000816080937A0080917A00806880937A0064
:100E20001092C100209164013091650180916201AE
:100E3000909163012817390721F4109263011092F1
:100E400062018091620190916301909365018093AA
:100E50006401E091A001F091A10182E08083E09122
:100E60009C01F0919D011082E0919E01F0919F0103
:100E70008FEC80831092A801E091A401F091A5016C
:100E8000C6E0C083E091A201F091A301808180615E
:100E90008083E091A201F091A3018081886080832A
:100EA000E091A201F091A301808180688083E091AC
:100EB000A201F091A30180818F7D808362E083E0B5
:100EC0000E9449068EEF91E0909303018093020106
:100ED000809169008C6080936900E99A62E082E009
:100EE0000E94490661E085E00E94490660E085E0D5
:100EF0000E941A0661E084E00E94490660E084E0F6
:100F00000E941A068CE392E0909301018093000105
:100F100080916900836080936900E89A8AEF92E08B
:100F200090935B0280935A0284EDC82E82E0D82E03
:100F3000D0925D02C0925C0210925F0210925E023B
:100F40001092610210926002C0933A0292E3492E1D
:100F5000512C612C712C40923B0250923C026092C9
:100F60003D0270923E0222E0E22EF12CF09240020D
:100F7000E0923F021092410210924202109243020C
:100F80001092440201E010E01093460200934502E3
:100F900062E086E00E944906C1E0C093470281EE0C
:100FA00092E09093850280938402D0928702C0924F
:100FB0008602109289021092880210928B0210927F
:100FC0008A0287E080936402409265025092660232
:100FD0006092670270926802F0926A02E09269027F
:100FE00010926B0210926C0210926D0210926E02BF
:100FF0001093700200936F0262E00E944906C09352
:1010000071021092AF021092AE0232E1C32E33E0B1
:10101000D32ED092B102C092B0028FE393E09093AE
:10102000B3028093B2021092B5021092B40288E02B
:1010300080938E0240928F025092900260929102B1
:1010400070929202F0929402E092930240ED842E0C
:1010500047E0942EA12CB12C80929502909296029A
:10106000A0929702B092980210939A02009399026C
:1010700062E00E944906C0939B021092D90210922E
:10108000D802D092DB02C092DA0282E393E090931E
:10109000DD028093DC021092DF021092DE0289E012
:1010A0008093B8024092B9025092BA026092BB0299
:1010B0007092BC02F092BE02E092BD028092BF022A
:1010C0009092C002A092C102B092C2021093C402D8
:1010D0000093C30262E00E944906C093C50261E02A
:1010E000809131020E9449069EE088E10FB6F89493
:1010F000A895809360000FBE9093600050E2B52EDB
:1011000012E0C0E2D0E08091350290913602019663
:10111000909336028093350220913302309134024D
:10112000281739077CF460913702809131020E94C0
:101130001A06809137028027809337021092360278
:1011400010923502A89580E991E00E9421011816BD
:1011500019060CF061C080E991E00E94FF008D301B
:1011600009F45AC020916A0130916B012F31310589
:1011700039F4D0936B01C0936A0110928B0113C0B4
:101180002032310584F4A9014F5F5F4FF901E65920
:10119000FE4F50936B0140936A018A3011F4128222
:1011A00002C0828339C065E571E08CE691E00E945F
:1011B000C40E892B09F061C187ED90E00E94E30520
:1011C000F8944091E0025091E1026091E202709146
:1011D000E30278948091EE02823009F093C280910C
:1011E000E8029091E902A091EA02B091EB0248175F
:1011F00059076A077B070CF485C28CE990E00E94CE
:10120000E305ECE6F1E0DF012B2D1D922A95E9F7CD
:1012100010926B0110926A018FB7F894C0908C0104
:10122000D0908D01E0908E01F0908F018FBFB701BB
:10123000A60188E392E00E944D03B701A60182E671
:1012400092E00E944D03B701A6018CE892E00E9453
:101250004D03B701A60186EB92E00E944D039091E9
:10126000EC028091FB02981709F456C08091EC02C1
:10127000813001F1A0F0823009F04AC060E085E0E1
:101280000E941A0660E084E00E941A06C092F702EB
:10129000D092F802E092F902F092FA0239C010926C
:1012A000ED0261E085E00E941A060E94100560E0F0
:1012B00084E00AC08093ED0261E084E00E941A0697
:1012C0000E94100560E085E00E941A06F894809163
:1012D000E0029091E102A091E202B091E3027894E1
:1012E0008093EF029093F002A093F102B093F20288
:1012F000C092F302D092F402E092F502F092F6026C
:101300001092F7021092F8021092F9021092FA026B
:101310008091EC028093FB028091EC02823009F410
:1013200082C08091F3029091F402A091F502B091F5
:10133000F602A7019601281B390B4A0B5B0BDA0159
:10134000C901853F9140A105B105D8F1F8944090BD
:10135000E0025090E1026090E2027090E302789423
:101360008091EF029091F002A091F102B091F2020F
:10137000A3019201281B390B4A0B5B0BDA01C9014F
:101380000996A11DB11D4397A105B10550F4109315
:10139000EC028DE890E00E94E30589E890E00E946D
:1013A000E3054092EF025092F0026092F1027092D7
:1013B000F202C092F302D092F402E092F502F092AF
:1013C000F6028091EE02823071F5F8944091E002CD
:1013D0005091E1026091E2027091E3027894809171
:1013E000E4029091E502A091E602B091E7028659ED
:1013F0009109A109B109481759076A077B070CF43D
:1014000087C18091E8029091E902A091EA02B0912F
:10141000EB028A569F4FAF4FBF4F84179507A60721
:10142000B7070CF475C18091F7029091F802A09172
:10143000F902B091FA020097A105B105D9F0C81AD6
:10144000D90AEA0AFB0A39EBC3163BE0D306E104EA
:10145000F10480F01092F7021092F8021092F90253
:101460001092FA021093ED02F89480EE92E00E943E
:10147000EC0478940E94C80146CE6CE271E08CE6E0
:1014800091E00E94C40E892B11F581ED90E00E943D
:10149000E305F8944091E0025091E1026091E2028C
:1014A0007091E30278948091EE02823009F02DC1B0
:1014B0008091E4029091E502A091E602B091E702EA
:1014C00084179507A607B7070CF41FC196CE62E3F1
:1014D00071E08CE691E00E94C40E892B89F48CECBB
:1014E00090E00E94E305F8948091E0029091E1027F
:1014F000A091E202B091E30278941093EC027DCEC9
:1015000067E371E08CE691E00E94C40E892B09F03C
:1015100076C082EC90E00E94C805F8944090E0020A
:101520005090E1026090E2027090E3027894C090E3
:10153000E802D090E902E090EA02F090EB0280919C
:10154000E4029091E502A091E602B091E702C81A88
:10155000D90AEA0AFB0A09F44BC08091E40290918F
:10156000E502A091E602B091E702A3019201281BD7
:10157000390B4A0B5B0BA4E6B0E00E947E0DA7017D
:1015800096010E945F0D57FD33C08091E402909157
:10159000E502A091E602B091E702A3019201281BA7
:1015A000390B4A0B5B0BA4E6B0E00E947E0DA7014D
:1015B00096010E945F0D2536310541055105D4F491
:1015C0008091E4029091E502A091E602B091E702D9
:1015D000A3019201281B390B4A0B5B0BA4E6B0E078
:1015E0000E947E0DA70196010E945F0D622F03C02D
:1015F00060E001C064E670E080E090E016C063E463
:1016000071E08CE691E00E94C40E892B91F48BEB83
:1016100090E00E94C805F89460916601709167019E
:10162000809168019091690178944AE00E9459057F
:1016300064C069E471E08CE691E00E94C40E892BDD
:1016400079F585EB90E00E94E3058FE790E00E943A
:10165000C8056091E0027091E1028091E2029091F0
:10166000E3020E949A0589E790E00E94C805609114
:10167000E8027091E9028091EA029091EB020E94E7
:101680009A0582E790E00E94C8056091E40270919B
:10169000E5028091E6029091E7020E949A05ADCDA5
:1016A0006FE471E08CE691E00E94C40E892BE9F4AE
:1016B0008FEA90E00E94E3051092E0021092E102AE
:1016C0001092E2021092E3021092E4021092E502FC
:1016D0001092E6021092E7021092E8021092E902DC
:1016E0001092EA021092EB0288CD80EA90E00E940C
:1016F000C8058CE691E00E94470580E491E00E94D5
:1017000047057BCD1092EC0278CD0093EC0275CDAD
:101710001093EC028DE890E00E94E30589E890E0E8
:101720000E94E30580CECF93DF93E0E9F1E01382DE
:10173000128288EE93E0A0E0B0E084839583A683D4
:10174000B7838EE091E09183808385EC90E095876C
:10175000848784EC90E09787868780EC90E0918B7B
:10176000808B81EC90E0938B828B82EC90E0958B68
:10177000848B86EC90E0978B868B118E128E138E65
:10178000148E84E690E090932E0280932D02C0EE9A
:10179000D2E0188219821A821B821C821D821E824C
:1017A0001F82188619861A861B8682E08C878D8791
:1017B0008E871F86188A198A1A8A1B8A1C8A1D8A94
:1017C0001E8A1F8A188E198E1A8E8B8F4CE050E05D
:1017D00060E070E0CE010E94170DE8E3F2E020E245
:1017E00031E03183208312821382148215821682A3
:1017F00082E090E090878783118612861386148694
:10180000168615861786108A118A128A138A148AF8
:10181000158A168A178A108E118E128E138E148EC8
:10182000158E168E178E10A211A213A212A215A247
:1018300014A217A216A211A610A633A722A714A6B7
:1018400015A616A617A610AA92AB81AB13AA14AAC6
:1018500015AA16AA10AE17AA11AE12AE13AE14AE88
:1018600015AE16AE17AE1092780210927902109251
:101870007A0210927B0210927C0210927D021092EA
:101880007E0210927F0210928002109281021092CA
:1018900082021092830210928502109284021092AA
:1018A000870210928602109289021092880210928A
:1018B0008B0210928A0230938D0220938C02109238
:1018C0008E0210928F02109290021092910210924A
:1018D0009202909394028093930210929502109238
:1018E0009602109297021092980210929A02109209
:1018F000990210929B0210929C0210929D021092EB
:101900009E0210929F021092A0021092A1021092C9
:10191000A2021092A3021092A4021092A5021092A9
:10192000A6021092A7021092A8021092A902109289
:10193000AA021092AB021092AC021092AD02109269
:10194000AF021092AE021092B1021092B002109249
:10195000B3021092B2021092B5021092B402309308
:10196000B7022093B6021092B8021092B9021092F8
:10197000BA021092BB021092BC029093BE028093F6
:10198000BD021092BF021092C0021092C1021092CA
:10199000C2021092C4021092C3021092C5021092A9
:1019A000C6021092C7021092C8021092C902109289
:1019B000CA021092CB021092CC021092CD02109269
:1019C000CE021092CF021092D0021092D102109249
:1019D000D2021092D3021092D4021092D502109229
:1019E000D6021092D7021092D9021092D802109209
:1019F000DB021092DA021092DD021092DC021092E9
:101A0000DF021092DE02D0933002C0932F02E1E396
:101A1000F2E08DE090E09183808388E893E1938306
:101A20008283158214821682DF91CF910895DC01A2
:101A3000CB01FC01F999FECF06C0F2BDE1BDF89AD9
:101A4000319600B40D9241505040B8F70895F9997D
:101A5000FECF92BD81BDF89A992780B50895262FB3
:101A6000F999FECF1FBA92BD81BD20BD0FB6F89483
:101A7000FA9AF99A0FBE01960895A1E21A2EAA1BAE
:101A8000BB1BFD010DC0AA1FBB1FEE1FFF1FA2172E
:101A9000B307E407F50720F0A21BB30BE40BF50B2B
:101AA000661F771F881F991F1A9469F760957095B4
:101AB000809590959B01AC01BD01CF010895052E45
:101AC00097FB1EF400940E94760D57FD07D00E94EC
:101AD0003D0D07FC03D04EF40C94760D50954095C7
:101AE000309521953F4F4F4F5F4F089590958095CA
:101AF000709561957F4F8F4F9F4F08950E948F0D76
:101B0000A59F900DB49F900DA49F800D911D112451
:101B10000895EE0FFF1F0590F491E02D0994A29F08
:101B2000B001B39FC001A39F700D811D1124911DB1
:101B3000B29F700D811D1124911D08950F931F9365
:101B4000CF93DF938230910510F482E090E0E09132
:101B50000303F091040320E030E0A0E0B0E0309710
:101B600019F1408151810281138148175907C8F04A
:101B70008417950769F4109731F012960C93129719
:101B800013961C9327C0009303031093040322C0F1
:101B90002115310519F04217530718F49A01BD01B8
:101BA000EF01DF01F801DBCF21153105F9F0281B2A
:101BB000390B2430310580F48A819B8161157105D0
:101BC00021F0FB019383828304C0909304038093EC
:101BD0000303FE01329644C0FE01E20FF31F81931E
:101BE000919322503109398328833AC0209101030F
:101BF00030910203232B41F420910601309107011B
:101C000030930203209301032091040130910501D8
:101C10002115310541F42DB73EB74091080150918F
:101C20000901241B350BE0910103F0910203E21737
:101C3000F307A0F42E1B3F0B2817390778F0AC01EF
:101C40004E5F5F4F2417350748F04E0F5F1F5093CC
:101C50000203409301038193919302C0E0E0F0E01E
:101C6000CF01DF91CF911F910F910895CF93DF9313
:101C7000009709F481C0FC01329713821282A0916F
:101C80000303B0910403109781F420813181820F06
:101C9000931F20910103309102032817390751F552
:101CA000F0930203E093010367C0ED0120E030E010
:101CB000CE17DF0740F44A815B819E014115510533
:101CC000F1F0EA01F5CFD383C28340815181840FC3
:101CD000951FC817D90759F488819981840F951FDA
:101CE0000296918380838A819B81938382832115CD
:101CF000310529F4F0930403E09303033DC0E901A7
:101D0000FB83EA8349915991C40FD51FEC17FD0756
:101D100061F480819181840F951F0296E901998376
:101D20008883828193819B838A83E0E0F0E012962E
:101D30008D919C911397009719F0FD01DC01F7CF6D
:101D40008D919C9111979D012E5F3F4F820F931FA4
:101D500020910103309102032817390769F4309765
:101D600029F4109204031092030302C0138212821A
:101D7000B0930203A0930103DF91CF91089581E016
:101D800090E0F8940C94CD0EFB01DC018D91019054
:0E1D900080190110D9F3990B0895F894FFCF34
:101D9E00C100C100000005038000000000005901D1
:101DAE00C200F000A6012101FF0013010000000097
:101DBE00C6041E04F301E801DD01D201636C6F73EA
:101DCE00650073746F7000706F736974696F6E0065
:101DDE000D0A007761746572006465627567007242
:0A1DEE0065736574006F70656E0088
:107E0000112484B714BE81FFF0D085E080938100F7
:107E100082E08093C00088E18093C10086E0809377
:107E2000C20080E18093C4008EE0C9D0259A86E02C
:107E300020E33CEF91E0309385002093840096BBD3
:107E4000B09BFECF1D9AA8958150A9F7CC24DD24C4
:107E500088248394B5E0AB2EA1E19A2EF3E0BF2EE7
:107E6000A2D0813461F49FD0082FAFD0023811F036
:107E7000013811F484E001C083E08DD089C08234E0
:107E800011F484E103C0853419F485E0A6D080C0E4
:107E9000853579F488D0E82EFF2485D0082F10E0AE
:107EA000102F00270E291F29000F111F8ED06801E7
:107EB0006FC0863521F484E090D080E0DECF843638
:107EC00009F040C070D06FD0082F6DD080E0C81688
:107ED00080E7D80618F4F601B7BEE895C0E0D1E017
:107EE00062D089930C17E1F7F0E0CF16F0E7DF06D8
:107EF00018F0F601B7BEE89568D007B600FCFDCFD4
:107F0000A601A0E0B1E02C9130E011968C91119780
:107F100090E0982F8827822B932B1296FA010C0160
:107F200087BEE89511244E5F5F4FF1E0A038BF0790
:107F300051F7F601A7BEE89507B600FCFDCF97BE46
:107F4000E89526C08437B1F42ED02DD0F82E2BD052
:107F50003CD0F601EF2C8F010F5F1F4F84911BD097
:107F6000EA94F801C1F70894C11CD11CFA94CF0C13
:107F7000D11C0EC0853739F428D08EE10CD085E9AC
:107F80000AD08FE07ACF813511F488E018D01DD067
:107F900080E101D065CF982F8091C00085FFFCCF94
:107FA0009093C60008958091C00087FFFCCF809118
:107FB000C00084FD01C0A8958091C6000895E0E648
:107FC000F0E098E1908380830895EDDF803219F02E
:107FD00088E0F5DFFFCF84E1DECF1F93182FE3DFCA
:107FE0001150E9F7F2DF1F91089580E0E8DFEE27F6
:047FF000FF270994CA
:027FFE00040479
:0400000300007E007B
:00000001FF
