:100000000C9498000C94CD040C94A6040C94C0009D
:100010000C94C0000C94C0000C94C0000C94C00060
:100020000C94C0000C94C0000C94C0000C94C00050
:100030000C94C0000C94C0000C94C0000C94C00040
:100040000C945C040C94C0000C949B010C947501FE
:100050000C94C0000C94C0000C94C0000C94C00020
:100060000C94C0000C94C000636C6F73653D006F0E
:1000700070656E3D00706F736974696F6E3D002A24
:100080002A2A00656D657267656E63792073746FE7
:1000900070002A2A2A006572726F7220636F6D6D7C
:1000A000616E6420007265736574006465627567D3
:1000B0000077617465722000706F736974696F6E88
:1000C000200073746F7000636C6F7365006F7065F0
:1000D0006E00000000002300260029000000000040
:1000E000240027002A0000000000250028002B0023
:1000F00004040404040404040202020202020303CE
:1001000003030303010204081020408001020408D5
:100110001020010204081020000000080002010065
:10012000000304070000000000000000A00B9F0B6C
:1001300011241FBECFEFD8E0DEBFCDBF11E0A0E09D
:10014000B1E0E6EEFDE102C005900D92AC35B107DD
:10015000D9F723E0ACE5B1E001C01D92A730B207AA
:10016000E1F710E0C7E9D0E004C02197FE010E944A
:10017000960DC639D107C9F70E94D2060C94E60E37
:100180000C940000CF92DF92EF92FF920F931F9397
:10019000CF93DF936C017A018B01C0E0D0E0CE15E4
:1001A000DF0589F0D8016D918D01D601ED91FC91AB
:1001B0000190F081E02DC6010995892B11F47E0193
:1001C00002C02196ECCFC701DF91CF911F910F9113
:1001D000FF90EF90DF90CF900895089580E090E039
:1001E0000895FC01538D448D252F30E0842F90E03D
:1001F000821B930B541710F0CF9608950197089522
:1002000087E991E00E94EF0121E0892B09F420E0C9
:10021000822F08950E94D80EEF92FF920F931F93A2
:10022000CF93DF93EC0181E0888F9B8D8C8D9813A9
:1002300005C0E889F989808185FD24C0F62E0B8DE3
:1002400010E00F5F1F4F0F731127E02E8C8DE81207
:100250000CC00FB607FCFACFE889F989808185FFC9
:10026000F5CFCE010E94AA03F1CF8B8DFE01E80FDE
:10027000F11DE35AFF4FF0820B8FEA89FB898081E1
:10028000806207C0EE89FF896083E889F9898081EF
:100290008064808381E090E0DF91CF911F910F9186
:1002A000FF90EF900895CF93DF93EC01888D882322
:1002B000C9F0EA89FB89808185FD05C0A889B989D3
:1002C0008C9186FD0FC00FB607FCF5CF808185FFAE
:1002D000F2CFA889B9898C9185FFEDCFCE010E941C
:1002E000AA03E7CFDF91CF9108951F920F920FB627
:1002F0000F9211242F933F934F935F936F937F93AC
:100300008F939F93AF93BF93EF93FF9387E991E010
:100310000E94AA03FF91EF91BF91AF919F918F919E
:100320007F916F915F914F913F912F910F900FBEF1
:100330000F901F9018951F920F920FB60F921124D5
:100340002F938F939F93EF93FF93E091A701F091E9
:10035000A8018081E091AD01F091AE0182FD12C053
:1003600090818091B0018F5F8F732091B1018217CE
:1003700051F0E091B001F0E0E956FE4F958F809387
:10038000B00101C08081FF91EF919F918F912F91DA
:100390000F900FBE0F901F901895FC01918D828DCC
:1003A000981761F0828DDF01A80FB11D5D968C91C9
:1003B000928D9F5F9F73928F90E008958FEF9FEFD4
:1003C0000895FC01918D828D981731F0828DE80F90
:1003D000F11D858D90E008958FEF9FEF0895FC014A
:1003E000918D228D892F90E0805C9F4F821B910917
:1003F0008F739927089580E090E0892B29F00E945F
:10040000000181110C9400000895833081F028F4DC
:10041000813099F08230A1F008958730A9F08830BA
:10042000B9F08430D1F4809180008F7D03C0809139
:1004300080008F7780938000089584B58F7702C005
:1004400084B58F7D84BD08958091B0008F7703C0FF
:100450008091B0008F7D8093B00008950895DC01F5
:100460009896ED91FC919997309719F012968C918E
:1004700009940895DC019696ED91FC919797309739
:1004800019F012968C9109940895DC019496ED91DF
:10049000FC919597309719F012968C9109940895D4
:1004A000DC019296ED91FC919397309719F012969A
:1004B0008C91099408950F931F938FB7F8944091EE
:1004C0005C0150915D0160915E0170915F018FBF91
:1004D00080918E0190918F01A0919001B091910136
:1004E0008A019B01081B190B2A0B3B0B03331105D7
:1004F0002105310598F08091600190916101A091F2
:100500006201B09163010196A11DB11D809360014C
:1005100090936101A0936201B093630140938E01B7
:1005200050938F0160939001709391011F910F91EF
:100530000895CF92DF92EF92FF920F931F938FB7A0
:10054000F89440915C0150915D0160915E01709161
:100550005F018FBF80918A0190918B01A0918C01E6
:10056000B0918D018A019B01081B190B2A0B3B0BD3
:100570000B3011052105310508F461C08091F402AA
:10058000882319F0813079F15AC08091E702909167
:10059000E802A091E902B091EA020196A11DB11D05
:1005A0008093E7029093E802A093E902B093EA02F5
:1005B0008091F502823009F042C0C090E702D090ED
:1005C000E802E090E902F090EA020091EF02109157
:1005D000F0022091F1023091F202C016D106E2063B
:1005E000F306E4F52CC08091E7029091E802A09117
:1005F000E902B091EA020197A109B1098093E702EB
:100600009093E802A093E902B093EA028091F50288
:100610008230A9F4C090E702D090E802E090E902AD
:10062000F090EA020091EB021091EC022091ED02B1
:100630003091EE020C151D052E053F057CF440930C
:100640008A0150938B0160938C0170938D011F91EF
:100650000F91FF90EF90DF90CF9008958093F30279
:10066000EECFE0913602F0913702F89480819181CB
:10067000A281B381789482E084870895E091360264
:10068000F0913702F89440815181628173817894AE
:100690008685823049F484819581A681B78184174B
:1006A0009507A607B70714F481E084870895E091C1
:1006B0003602F0913702F894408151816281738152
:1006C00078948685823049F480859185A285B385AA
:1006D000481759076A077B070CF4148608950C9491
:1006E000400EE0913602F0913702F89480819181BA
:1006F000A281B381789481E086870895E0913602E3
:10070000F0913702F89480819181A281B38178942D
:1007100016860895E0913602F0913702F8948081B0
:100720009181A281B38178942685222339F02130EA
:1007300049F484839583A683B78304C08087918717
:10074000A287B38782E08687F894CF010E94C00514
:1007500078940895FC01848DDF01A80FB11DA35A80
:10076000BF4F2C91848D90E001968F739927848FD1
:10077000A689B7892C93A089B1898C9180648C93C8
:10078000938D848D981306C00288F389E02D8081B3
:100790008F7D808308951F93CF93DF93282F30E0C0
:1007A000F901E85EFE4F8491F901EC5FFE4FD491B0
:1007B000F901E051FF4FC491CC23C9F0162F8111EC
:1007C0000E940502EC2FF0E0EE0FFF1FEA51FF4FF1
:1007D000A591B4918FB7F894111105C09C91ED2F9C
:1007E000E095E92302C0EC91ED2BEC938FBFDF91F4
:1007F000CF911F910895CF93DF9390E0FC01EC5FC0
:10080000FE4F2491FC01E051FF4F8491882361F158
:1008100090E0880F991FFC01E452FF4FC591D491DD
:10082000FC01EA51FF4FA591B491611109C09FB736
:10083000F8948881209582238883EC912E230BC025
:10084000623061F49FB7F8943881822F80958323BA
:100850008883EC912E2B2C939FBF06C08FB7F89402
:10086000E8812E2B28838FBFDF91CF9108953FB76A
:10087000F8948091930190919401A0919501B09189
:10088000960126B5A89B05C02F3F19F00196A11D22
:10089000B11D3FBFBA2FA92F982F8827820F911D16
:1008A000A11DB11DBC01CD0142E0660F771F881F5D
:1008B000991F4A95D1F708951F920F920FB60F9284
:1008C00011242F933F938F939F93AF93BF93809166
:1008D0005C0190915D01A0915E01B0915F0130914A
:1008E000920123E0230F2D3720F40196A11DB11DA5
:1008F00005C026E8230F0296A11DB11D2093920189
:1009000080935C0190935D01A0935E01B0935F01C1
:100910008091930190919401A0919501B0919601DD
:100920000196A11DB11D8093930190939401A09312
:100930009501B0939601BF91AF919F918F913F9197
:100940002F910F900FBE0F901F9018951F920F922E
:100950000FB60F9211242F933F934F935F936F9392
:100960007F938F939F93AF93BF93EF93FF93E09108
:100970000401F09105010995FF91EF91BF91AF91AD
:100980009F918F917F916F915F914F913F912F91A7
:100990000F900FBE0F901F9018951F920F920FB6D9
:1009A0000F9211242F933F934F935F936F937F93F5
:1009B0008F939F93AF93BF93EF93FF93E0910201C7
:1009C000F09103010995FF91EF91BF91AF919F9134
:1009D0008F917F916F915F914F913F912F910F90E8
:1009E0000FBE0F901F901895CF92DF92EF92FF925B
:1009F0000F931F93CF93DF93FC012785222309F4E4
:100A000039C06A017B01EC01228130E0F901E85E26
:100A1000FE4F8491F901EC5FFE4F0491F901E05122
:100A2000FF4F1491112379F081110E940502E12FEB
:100A3000F0E0EE0FFF1FEE52FF4FA591B491EC9145
:100A4000E02381E009F480E081702F813885232B39
:100A500011F091E089272D853E852130310511F473
:100A600091E089279889981751F0888BCA8ADB8A88
:100A7000EC8AFD8A60E070E080E090E077C04A890F
:100A80005B896C897D8997018601041B150B260BF8
:100A9000370B4B815C816D817E8140175107620766
:100AA000730740F79989981731F1898BE881F981AB
:100AB000882389F08E899F89A88DB98D0196A11D03
:100AC000B11D8E8B9F8BA88FB98F0480F581E02D8F
:100AD000CE01099510C00680F781E02DCE01099561
:100AE000E881F9814E8D5F8D68A179A10284F3853B
:100AF000E02DCE0109958989882309F4BBCF8A8925
:100B00009B89AC89BD89C81AD90AEA0AFB0A09F48B
:100B1000B1CFCE8EDF8EE8A2F9A289859A85AB850A
:100B2000BC850097A105B105B1F0C816D906EA0643
:100B3000FB06D0F08E899F89A88DB98D4A8D5B8D7B
:100B40006C8D7D8D481759076A077B0769F08A8F7E
:100B50009B8FAC8FBD8FE881F9810084F185E02DFA
:100B6000B701A601CE010995B601C701DF91CF916A
:100B70001F910F91FF90EF90DF90CF90089508950F
:100B8000EF92FF920F931F93CF93DF937C0100E0CE
:100B900010E0C0E0D0E0CE010E94340DF701619179
:100BA0007F01861729F0CE010E943C0D0F5F1F4F79
:100BB0002196CC30D10579F7C801DF91CF911F91F3
:100BC0000F91FF90EF9008958F929F92AF92BF92F6
:100BD000CF92DF92EF92FF920E9437044B015C01AB
:100BE00084E6C82ED12CE12CF12C0E943704DC01C4
:100BF000CB0188199909AA09BB09883E9340A10530
:100C0000B10558F021E0C21AD108E108F10888EED8
:100C1000880E83E0981EA11CB11CC114D104E1040C
:100C2000F10419F7FF90EF90DF90CF90BF90AF9055
:100C30009F908F900895009769F0FC01019000202B
:100C4000E9F73197AF01481B590BBC0187E991E0E7
:100C50000C94C20080E090E008958F929F92AF9232
:100C6000BF920F931F93CF93DF93CDB7DEB7A197BA
:100C70000FB6F894DEBF0FBECDBF19A2423008F404
:100C80004AE08E010F5D1F4F842E912CA12CB12CB8
:100C9000A50194010E944A0DE62FB901CA01015035
:100CA0001109EA3014F4E05D01C0E95CD801EC936D
:100CB000232B242B252B61F7C8010E941B06A1962C
:100CC0000FB6F894DEBF0FBECDBFDF91CF911F915D
:100CD0000F91BF90AF909F908F900895CF92DF9229
:100CE000EF92FF92CF93DF936B017C0197FF1AC0C5
:100CF000E0919701F09198010190F081E02D6DE273
:100D000087E991E00995EC0166277727CB016C19FB
:100D10007D098E099F094AE00E942D067C01EC0E98
:100D2000FD1E04C04AE00E942D067C0182E491E091
:100D30000E941B068E0D9F1DDF91CF91FF90EF90BB
:100D4000DF90CF9008950F931F93CF93DF938C0183
:100D5000C0E0D0E0F801EC0FFD1F6491662371F054
:100D6000E0919701F09198010190F081E02D87E9E1
:100D700091E00995892B11F02196ECCFCE01DF91FE
:100D8000CF911F910F910895CF93DF930E94A306F7
:100D9000EC0182E491E00E941B068C0F9D1FDF9105
:100DA000CF910895789484B5826084BD84B58160C4
:100DB00084BD85B5826085BD85B5816085BD809126
:100DC0006E00816080936E0010928100809181009E
:100DD0008260809381008091810081608093810096
:100DE000809180008160809380008091B100846058
:100DF0008093B1008091B00081608093B0008091B9
:100E00007A00846080937A0080917A008260809377
:100E10007A0080917A00816080937A0080917A00D4
:100E2000806880937A001092C10020916601309111
:100E3000670180916401909165012817390721F4B9
:100E40001092650110926401809164019091650196
:100E500090936701809366018130944034F480E080
:100E600094E09093010180930001E091A701F0913B
:100E7000A80182E08083E091A301F091A401108297
:100E8000E091A501F091A6018FEC80831092AF0153
:100E9000E091AB01F091AC01C6E0C083E091A90103
:100EA000F091AA01808180618083E091A901F09195
:100EB000AA01808188608083E091A901F091AA0154
:100EC000808180688083E091A901F091AA018081EE
:100ED0008F7D808362E083E00E94FB038BE592E0DC
:100EE0009093050180930401809169008C60809348
:100EF0006900E99A62E082E00E94FB0361E085E01C
:100F00000E94FB0361E085E00E94CB0361E084E086
:100F10000E94FB0361E084E00E94CB0389E992E038
:100F20009093030180930201809169008360809314
:100F30006900E89A87E593E09093620280936102EA
:100F400081E3C82E83E0D82ED0926402C09263025F
:100F50001092660210926502109268021092670267
:100F6000C093410292E3492E512C612C712C409286
:100F7000420250924302609244027092450222E083
:100F8000E22EF12CF0924702E092460210924802C3
:100F90001092490210924A0210924B0201E010E0B6
:100FA00010934D0200934C0262E086E00E94FB0326
:100FB000C1E0C0934E028EE393E090938C02809345
:100FC0008B02D0928E02C0928D02109290021092EB
:100FD0008F02109292021092910287E080936B022E
:100FE00040926C0250926D0260926E0270926F029B
:100FF000F0927102E09270021092720210927302EB
:101000001092740210927502109377020093760288
:1010100062E00E94FB03C09378021092B602109225
:10102000B5023AE8C32E33E0D32ED092B802C09274
:10103000B7028EE793E09093BA028093B9021092C0
:10104000BC021092BB0288E0809395024092960207
:10105000509297026092980270929902F0929B02CD
:10106000E0929A0240ED842E47E0942EA12CB12C00
:1010700080929C0290929D02A0929E02B0929F024A
:101080001093A1020093A00262E00E94FB03C093B0
:10109000A2021092E0021092DF02D092E202C0920D
:1010A000E10281E793E09093E4028093E3021092DF
:1010B000E6021092E50289E08093BF024092C002EE
:1010C0005092C1026092C2027092C302F092C502B5
:1010D000E092C4028092C6029092C702A092C80217
:1010E000B092C9021093CB020093CA0262E00E9440
:1010F000FB03C093CC0261E0809138020E94FB03A5
:101100009EE088E10FB6F894A895809360000FBE2A
:101110009093600050E2B52E12E0C0E2D0E08091E2
:101120003C0290913D02019690933D0280933C02D7
:1011300020913A0230913B02281739077CF46091E4
:101140003E02809138020E94CB0380913E028027AC
:1011500080933E0210923D0210923C02A89587E9CE
:1011600091E00E94EF01181619060CF061C087E9A2
:1011700091E00E94CD018D3009F45AC020916801A0
:10118000309169012F31310539F4D0936901C09351
:1011900068011092890113C02032310584F4A9013D
:1011A0004F5F5F4FF901E859FE4F5093690140933B
:1011B00068018A3011F4128202C0828339C067E567
:1011C00071E08AE691E00E94DD0E892B09F061C191
:1011D0008DEC90E00E94C406F8944091E702509193
:1011E000E8026091E9027091EA0278948091F50238
:1011F000823009F093C28091EF029091F002A091A9
:10120000F102B091F202481759076A077B070CF404
:1012100085C282E990E00E94C406EAE6F1E0DF01BF
:101220002B2D1D922A95E9F7109269011092680101
:101230008FB7F894C0905C01D0905D01E0905E01A2
:10124000F0905F018FBFB701A6018FE392E00E948B
:10125000F404B701A60189E692E00E94F404B70104
:10126000A60183E992E00E94F404B701A6018DEB88
:1012700092E00E94F4049091F30280910203981787
:1012800009F456C08091F302813001F1A0F0823060
:1012900009F04AC061E085E00E94CB0361E084E090
:1012A0000E94CB03C092FE02D092FF02E0920003A4
:1012B000F092010339C01092F40260E085E00E94D0
:1012C000CB030E94E40561E084E00AC08093F4024D
:1012D00060E084E00E94CB030E94E40561E085E0C9
:1012E0000E94CB03F8948091E7029091E802A091CC
:1012F000E902B091EA0278948093F6029093F702A3
:10130000A093F802B093F902C092FA02D092FB02C5
:10131000E092FC02F092FD021092FE021092FF0297
:1013200010920003109201038091F3028093020354
:101330008091F302823009F482C08091FA02909188
:10134000FB02A091FC02B091FD02A7019601281BAF
:10135000390B4A0B5B0BDA01C901853F9140A105AE
:10136000B105D8F1F8944090E7025090E8026090FF
:10137000E9027090EA0278948091F6029091F70267
:10138000A091F802B091F902A3019201281B390B38
:101390004A0B5B0BDA01C9010996A11DB11D4397E8
:1013A000A105B10550F41093F30283E890E00E9488
:1013B000C4068FE790E00E94C4064092F602509265
:1013C000F7026092F8027092F902C092FA02D0928B
:1013D000FB02E092FC02F092FD028091F502823065
:1013E00071F5F8944091E7025091E8026091E902AA
:1013F0007091EA0278948091EB029091EC02A091B6
:10140000ED02B091EE0286599109A109B109481780
:1014100059076A077B070CF487C18091EF0290910E
:10142000F002A091F102B091F2028A569F4FAF4FA5
:10143000BF4F84179507A607B7070CF475C18091B5
:10144000FE029091FF02A0910003B091010300976A
:10145000A105B105D9F0C81AD90AEA0AFB0A39EB85
:10146000C3163BE0D306E104F10480F01092FE02C3
:101470001092FF0210920003109201031093F402E5
:10148000F89487EE92E00E94C00578940E94FB01D8
:1014900046CE6EE271E08AE691E00E94DD0E892B75
:1014A00011F587EC90E00E94C406F8944091E702A1
:1014B0005091E8026091E9027091EA02789480917B
:1014C000F502823009F02DC18091EB029091EC027F
:1014D000A091ED02B091EE0284179507A607B70719
:1014E0000CF41FC196CE64E371E08AE691E00E949D
:1014F000DD0E892B89F482EC90E00E94C406F894FA
:101500008091E7029091E802A091E902B091EA028D
:1015100078941093F3027DCE69E371E08AE691E05E
:101520000E94DD0E892B09F076C088EB90E00E94C6
:10153000A306F8944090E7025090E8026090E90218
:101540007090EA027894C090EF02D090F002E090A0
:10155000F102F090F2028091EB029091EC02A091E6
:10156000ED02B091EE02C81AD90AEA0AFB0A09F4A0
:101570004BC08091EB029091EC02A091ED02B091F2
:10158000EE02A3019201281B390B4A0B5B0BA4E668
:10159000B0E00E948B0DA70196010E946C0D57FDD3
:1015A00033C08091EB029091EC02A091ED02B091DA
:1015B000EE02A3019201281B390B4A0B5B0BA4E638
:1015C000B0E00E948B0DA70196010E946C0D25369C
:1015D000310541055105D4F48091EB029091EC0264
:1015E000A091ED02B091EE02A3019201281B390BEC
:1015F0004A0B5B0BA4E6B0E00E948B0DA70196019D
:101600000E946C0D622F03C060E001C064E670E0D0
:1016100080E090E016C065E471E08AE691E00E9407
:10162000DD0E892B91F481EB90E00E94A306F894E3
:1016300060916001709161018091620190916301FC
:1016400078944AE00E942D0664C06BE471E08AE65B
:1016500091E00E94DD0E892B79F58BEA90E00E94E3
:10166000C40685E790E00E94A3066091E7027091AE
:10167000E8028091E9029091EA020E946E068FE6EC
:1016800090E00E94A3066091EF027091F0028091B9
:10169000F1029091F2020E946E0688E690E00E94AC
:1016A000A3066091EB027091EC028091ED029091A3
:1016B000EE020E946E06ADCD61E571E08AE691E032
:1016C0000E94DD0E892BE9F485EA90E00E94C406B1
:1016D0001092E7021092E8021092E9021092EA02D8
:1016E0001092EB021092EC021092ED021092EE02B8
:1016F0001092EF021092F0021092F1021092F20298
:1017000088CD86E990E00E94A3068AE691E00E94D7
:101710001B0682E491E00E941B067BCD1092F3022F
:1017200078CD0093F30275CD1093F30283E890E037
:101730000E94C4068FE790E00E94C40680CE089500
:10174000CF93DF93E7E9F1E01382128288EE93E012
:10175000A0E0B0E084839583A683B78380E191E025
:101760009183808385EC90E09587848784EC90E07A
:101770009787868780EC90E0918B808B81EC90E05E
:10178000938B828B82EC90E0958B848B86EC90E03F
:10179000978B868B118E128E138E148E84E690E0BA
:1017A0009093350280933402C7EED2E018821982FA
:1017B0001A821B821C821D821E821F821886198635
:1017C0001A861B8682E08C878D878E871F86188AF3
:1017D000198A1A8A1B8A1C8A1D8A1E8A1F8A188ED9
:1017E000198E1A8E8B8F4CE050E060E070E0CE01D5
:1017F0000E94240DEFE3F2E022E231E03183208306
:101800001282138214821582168282E090E0908701
:101810008783118612861386148616861586178688
:10182000108A118A128A138A148A158A168A178ACC
:10183000108E118E128E138E148E158E168E178E9C
:1018400010A211A213A212A215A214A217A216A2EC
:1018500011A610A633A722A714A615A616A617A68A
:1018600010AA92AB81AB13AA14AA15AA16AA10AE9D
:1018700017AA11AE12AE13AE14AE15AE16AE17AE59
:1018800010927F02109280021092810210928202C6
:1018900010928302109284021092850210928602A6
:1018A00010928702109288021092890210928A0286
:1018B00010928C0210928B0210928E0210928D0266
:1018C0001092900210928F02109292021092910246
:1018D00030939402209393021092950210929602F4
:1018E00010929702109298021092990290939B0284
:1018F00080939A0210929C0210929D0210929E0276
:1019000010929F021092A1021092A0021092A202C5
:101910001092A3021092A4021092A5021092A602A5
:101920001092A7021092A8021092A9021092AA0285
:101930001092AB021092AC021092AD021092AE0265
:101940001092AF021092B0021092B1021092B20245
:101950001092B3021092B4021092B6021092B50225
:101960001092B8021092B7021092BA021092B90205
:101970001092BC021092BB023093BE022093BD02B3
:101980001092BF021092C0021092C1021092C202C5
:101990001092C3029093C5028093C4021092C602B3
:1019A0001092C7021092C8021092C9021092CB0284
:1019B0001092CA021092CC021092CD021092CE0266
:1019C0001092CF021092D0021092D1021092D20245
:1019D0001092D3021092D4021092D5021092D60225
:1019E0001092D7021092D8021092D9021092DA0205
:1019F0001092DB021092DC021092DD021092DE02E5
:101A00001092E0021092DF021092E2021092E102C4
:101A10001092E4021092E3021092E6021092E502A4
:101A2000D0933702C0933602E8E3F2E08DE090E015
:101A30009183808388E893E1938382831582148263
:101A40001682DF91CF910895DC01CB01FC01F99959
:101A5000FECF06C0F2BDE1BDF89A319600B40D92FA
:101A600041505040B8F70895F999FECF92BD81BD1D
:101A7000F89A992780B50895262FF999FECF1FBAB5
:101A800092BD81BD20BD0FB6F894FA9AF99A0FBEA7
:101A900001960895A1E21A2EAA1BBB1BFD010DC0E1
:101AA000AA1FBB1FEE1FFF1FA217B307E407F5070E
:101AB00020F0A21BB30BE40BF50B661F771F881FEA
:101AC000991F1A9469F760957095809590959B0180
:101AD000AC01BD01CF010895052E97FB1EF40094C3
:101AE0000E94830D57FD07D00E944A0D07FC03D0CA
:101AF0004EF40C94830D50954095309521953F4FB1
:101B00004F4F5F4F089590958095709561957F4FE9
:101B10008F4F9F4F08950E949C0DA59F900DB49FDD
:101B2000900DA49F800D911D11240895EE0FFF1FAD
:101B30000590F491E02D0994A29FB001B39FC001DC
:101B4000A39F700D811D1124911DB29F700D811DE9
:101B50001124911D0895CF93DF938230910510F4E5
:101B600082E090E0E0910503F091060320E030E090
:101B7000C0E0D0E0309711F14081518148175907FA
:101B8000C0F04817590761F482819381209719F0BA
:101B90009B838A832BC0909306038093050326C002
:101BA0002115310519F04217530718F49A01BE01A7
:101BB000DF01EF010280F381E02DDCCF211531053B
:101BC00009F1281B390B2430310590F412968D91C0
:101BD0009C9113976115710521F0FB01938382831A
:101BE00004C09093060380930503FD01329644C020
:101BF000FD01E20FF31F81939193225031092D9340
:101C00003C933AC02091030330910403232B41F409
:101C100020910801309109013093040320930303BC
:101C200020910601309107012115310541F42DB7AE
:101C30003EB740910A0150910B01241B350BE091F6
:101C40000303F0910403E217F307A0F42E1B3F0BEC
:101C50002817390778F0AC014E5F5F4F241735071E
:101C600048F04E0F5F1F509304034093030381938A
:101C7000919302C0E0E0F0E0CF01DF91CF910895B1
:101C80000F931F93CF93DF93009709F48CC0FC014F
:101C900032971382128200910503109106030115F9
:101CA000110581F420813181820F931F209103035C
:101CB000309104032817390779F5F0930403E09372
:101CC000030371C0D80140E050E0AE17BF0750F4E5
:101CD00012962D913C911397AD012115310509F113
:101CE000D901F3CF9D01DA013383228360817181B1
:101CF000860F971F8217930769F4EC0128813981B9
:101D0000260F371F2E5F3F4F318320838A819B81AF
:101D100093838283452B29F4F0930603E093050314
:101D200042C01396FC93EE931297ED01499159919D
:101D30009E01240F351FE217F30771F48081918112
:101D4000840F951F029611969C938E9382819381A6
:101D500013969C938E931297E0E0F0E0D8011296D0
:101D60008D919C911397009719F0F8018C01F6CF93
:101D70008D919C9198012E5F3F4F820F931F209170
:101D80000303309104032817390769F4309729F4C5
:101D9000109206031092050302C013821282109360
:101DA000040300930303DF91CF911F910F910895D6
:101DB00081E090E0F8940C94E60EFB01DC018D913B
:101DC000019080190110D9F3990B089510E0C7E92B
:101DD000D0E004C0FE010E94960D2196C839D107BB
:061DE000C9F7F894FFCFE3
:101DE60000022E022E020000070380000000000001
:101DF6000C01C200F1005301EF01CD01E101000029
:101E06000000BF056F03500245023A022F02636CC1
:101E16006F73650073746F7000706F736974696FA8
:101E26006E000D0A007761746572006465627567FD
:0C1E3600007265736574006F70656E00CB
:00000001FF
